{
  "contractName": "RESNFT",
  "abi": [
    {
      "constant": true,
      "inputs": [
        {
          "name": "interfaceId",
          "type": "bytes4"
        }
      ],
      "name": "supportsInterface",
      "outputs": [
        {
          "name": "",
          "type": "bool"
        }
      ],
      "payable": false,
      "stateMutability": "view",
      "type": "function"
    },
    {
      "constant": true,
      "inputs": [
        {
          "name": "",
          "type": "uint256"
        }
      ],
      "name": "assetApprovals",
      "outputs": [
        {
          "name": "",
          "type": "address"
        }
      ],
      "payable": false,
      "stateMutability": "view",
      "type": "function"
    },
    {
      "constant": true,
      "inputs": [
        {
          "name": "",
          "type": "uint256"
        }
      ],
      "name": "assetRenter",
      "outputs": [
        {
          "name": "",
          "type": "address"
        }
      ],
      "payable": false,
      "stateMutability": "view",
      "type": "function"
    },
    {
      "constant": true,
      "inputs": [
        {
          "name": "",
          "type": "uint256"
        }
      ],
      "name": "assetMap",
      "outputs": [
        {
          "name": "assetId",
          "type": "uint256"
        },
        {
          "name": "price",
          "type": "uint256"
        },
        {
          "name": "parent",
          "type": "uint256"
        },
        {
          "name": "percent",
          "type": "uint256"
        }
      ],
      "payable": false,
      "stateMutability": "view",
      "type": "function"
    },
    {
      "constant": true,
      "inputs": [
        {
          "name": "",
          "type": "uint256"
        }
      ],
      "name": "assetOwner",
      "outputs": [
        {
          "name": "",
          "type": "address"
        }
      ],
      "payable": false,
      "stateMutability": "view",
      "type": "function"
    },
    {
      "constant": true,
      "inputs": [
        {
          "name": "owner",
          "type": "address"
        }
      ],
      "name": "balanceOf",
      "outputs": [
        {
          "name": "",
          "type": "uint256"
        }
      ],
      "payable": false,
      "stateMutability": "view",
      "type": "function"
    },
    {
      "constant": true,
      "inputs": [],
      "name": "oracleAddress",
      "outputs": [
        {
          "name": "",
          "type": "address"
        }
      ],
      "payable": false,
      "stateMutability": "view",
      "type": "function"
    },
    {
      "constant": true,
      "inputs": [],
      "name": "assetCount",
      "outputs": [
        {
          "name": "",
          "type": "uint256"
        }
      ],
      "payable": false,
      "stateMutability": "view",
      "type": "function"
    },
    {
      "constant": true,
      "inputs": [
        {
          "name": "",
          "type": "address"
        }
      ],
      "name": "eligibleList",
      "outputs": [
        {
          "name": "",
          "type": "bool"
        }
      ],
      "payable": false,
      "stateMutability": "view",
      "type": "function"
    },
    {
      "inputs": [],
      "payable": false,
      "stateMutability": "nonpayable",
      "type": "constructor"
    },
    {
      "anonymous": false,
      "inputs": [
        {
          "indexed": true,
          "name": "from",
          "type": "address"
        },
        {
          "indexed": true,
          "name": "to",
          "type": "address"
        },
        {
          "indexed": true,
          "name": "tokenId",
          "type": "uint256"
        }
      ],
      "name": "Transfer",
      "type": "event"
    },
    {
      "anonymous": false,
      "inputs": [
        {
          "indexed": true,
          "name": "owner",
          "type": "address"
        },
        {
          "indexed": true,
          "name": "approved",
          "type": "address"
        },
        {
          "indexed": true,
          "name": "tokenId",
          "type": "uint256"
        }
      ],
      "name": "Approval",
      "type": "event"
    },
    {
      "anonymous": false,
      "inputs": [
        {
          "indexed": true,
          "name": "",
          "type": "address"
        }
      ],
      "name": "AddedToWhiteList",
      "type": "event"
    },
    {
      "anonymous": false,
      "inputs": [
        {
          "indexed": true,
          "name": "",
          "type": "address"
        }
      ],
      "name": "RemoveFromWhiteList",
      "type": "event"
    },
    {
      "anonymous": false,
      "inputs": [
        {
          "indexed": true,
          "name": "owner",
          "type": "address"
        },
        {
          "indexed": true,
          "name": "operator",
          "type": "address"
        },
        {
          "indexed": false,
          "name": "approved",
          "type": "bool"
        }
      ],
      "name": "ApprovalForAll",
      "type": "event"
    },
    {
      "constant": false,
      "inputs": [
        {
          "name": "eligible",
          "type": "address"
        }
      ],
      "name": "addToEligibleList",
      "outputs": [],
      "payable": false,
      "stateMutability": "nonpayable",
      "type": "function"
    },
    {
      "constant": false,
      "inputs": [
        {
          "name": "deligible",
          "type": "address"
        }
      ],
      "name": "removeFromEligibleList",
      "outputs": [],
      "payable": false,
      "stateMutability": "nonpayable",
      "type": "function"
    },
    {
      "constant": true,
      "inputs": [
        {
          "name": "tokenId",
          "type": "uint256"
        }
      ],
      "name": "ownerOf",
      "outputs": [
        {
          "name": "",
          "type": "address"
        }
      ],
      "payable": false,
      "stateMutability": "view",
      "type": "function"
    },
    {
      "constant": true,
      "inputs": [
        {
          "name": "tokenId",
          "type": "uint256"
        }
      ],
      "name": "getRenter",
      "outputs": [
        {
          "name": "",
          "type": "address"
        }
      ],
      "payable": false,
      "stateMutability": "view",
      "type": "function"
    },
    {
      "constant": false,
      "inputs": [
        {
          "name": "from",
          "type": "address"
        },
        {
          "name": "assetId",
          "type": "uint256"
        }
      ],
      "name": "transferFrom",
      "outputs": [],
      "payable": true,
      "stateMutability": "payable",
      "type": "function"
    },
    {
      "constant": false,
      "inputs": [
        {
          "name": "from",
          "type": "address"
        },
        {
          "name": "to",
          "type": "address"
        },
        {
          "name": "tokenId",
          "type": "uint256"
        }
      ],
      "name": "transferFrom",
      "outputs": [],
      "payable": false,
      "stateMutability": "nonpayable",
      "type": "function"
    },
    {
      "constant": false,
      "inputs": [
        {
          "name": "assetId",
          "type": "uint256"
        },
        {
          "name": "newRenter",
          "type": "address"
        }
      ],
      "name": "changeRenter",
      "outputs": [],
      "payable": false,
      "stateMutability": "nonpayable",
      "type": "function"
    },
    {
      "constant": false,
      "inputs": [
        {
          "name": "id",
          "type": "uint256"
        },
        {
          "name": "count",
          "type": "uint256"
        },
        {
          "name": "percents",
          "type": "uint256[]"
        },
        {
          "name": "addresses",
          "type": "address[]"
        }
      ],
      "name": "split",
      "outputs": [],
      "payable": false,
      "stateMutability": "nonpayable",
      "type": "function"
    },
    {
      "constant": false,
      "inputs": [
        {
          "name": "to",
          "type": "address"
        },
        {
          "name": "assetId",
          "type": "uint256"
        }
      ],
      "name": "approve",
      "outputs": [],
      "payable": false,
      "stateMutability": "nonpayable",
      "type": "function"
    },
    {
      "constant": true,
      "inputs": [
        {
          "name": "assetId",
          "type": "uint256"
        }
      ],
      "name": "getApproved",
      "outputs": [
        {
          "name": "",
          "type": "address"
        }
      ],
      "payable": false,
      "stateMutability": "view",
      "type": "function"
    },
    {
      "constant": false,
      "inputs": [
        {
          "name": "to",
          "type": "address"
        },
        {
          "name": "approved",
          "type": "bool"
        }
      ],
      "name": "setApprovalForAll",
      "outputs": [],
      "payable": false,
      "stateMutability": "nonpayable",
      "type": "function"
    },
    {
      "constant": true,
      "inputs": [
        {
          "name": "owner",
          "type": "address"
        },
        {
          "name": "operator",
          "type": "address"
        }
      ],
      "name": "isApprovedForAll",
      "outputs": [
        {
          "name": "",
          "type": "bool"
        }
      ],
      "payable": false,
      "stateMutability": "view",
      "type": "function"
    },
    {
      "constant": false,
      "inputs": [
        {
          "name": "from",
          "type": "address"
        },
        {
          "name": "to",
          "type": "address"
        },
        {
          "name": "tokenId",
          "type": "uint256"
        }
      ],
      "name": "safeTransferFrom",
      "outputs": [],
      "payable": false,
      "stateMutability": "nonpayable",
      "type": "function"
    },
    {
      "constant": false,
      "inputs": [
        {
          "name": "from",
          "type": "address"
        },
        {
          "name": "to",
          "type": "address"
        },
        {
          "name": "tokenId",
          "type": "uint256"
        },
        {
          "name": "_data",
          "type": "bytes"
        }
      ],
      "name": "safeTransferFrom",
      "outputs": [],
      "payable": false,
      "stateMutability": "nonpayable",
      "type": "function"
    },
    {
      "constant": false,
      "inputs": [
        {
          "name": "price",
          "type": "uint256"
        },
        {
          "name": "to",
          "type": "address"
        }
      ],
      "name": "addAsset",
      "outputs": [],
      "payable": false,
      "stateMutability": "nonpayable",
      "type": "function"
    },
    {
      "constant": false,
      "inputs": [
        {
          "name": "assetId",
          "type": "uint256"
        },
        {
          "name": "value",
          "type": "uint256"
        }
      ],
      "name": "changePrice",
      "outputs": [],
      "payable": false,
      "stateMutability": "nonpayable",
      "type": "function"
    }
  ],
  "bytecode": "0x60806040523480156200001157600080fd5b506200002a6301ffc9a760e01b6200008960201b60201c565b620000426380ac58cd60e01b6200008960201b60201c565b33600660006101000a81548173ffffffffffffffffffffffffffffffffffffffff021916908373ffffffffffffffffffffffffffffffffffffffff16021790555062000192565b63ffffffff60e01b817bffffffffffffffffffffffffffffffffffffffffffffffffffffffff1916141562000126576040517f08c379a000000000000000000000000000000000000000000000000000000000815260040180806020018281038252601c8152602001807f4552433136353a20696e76616c696420696e746572666163652069640000000081525060200191505060405180910390fd5b6001600080837bffffffffffffffffffffffffffffffffffffffffffffffffffffffff19167bffffffffffffffffffffffffffffffffffffffffffffffffffffffff1916815260200190815260200160002060006101000a81548160ff02191690831515021790555050565b61349580620001a26000396000f3fe6080604052600436106101665760003560e01c806351c8c3f1116100d1578063b3de019c1161008a578063cd3d104811610064578063cd3d104814610a8a578063e985e9c514610bf7578063eafe7a7414610c80578063fe66288b14610cab57610166565b8063b3de019c146108e2578063b88d4fde14610927578063c3bda94414610a3957610166565b806351c8c3f1146106a25780636352211e146106fd57806370a08231146107785780637ae0f636146107dd578063a22cb4651461082e578063a89ae4ba1461088b57610166565b8063129f900811610123578063129f9008146103f757806323b872dd1461045b5780632a0ee644146104d65780633009c19b1461055157806342842e0e146105cc5780635073c45d1461064757610166565b806301c6adc31461016b57806301ffc9a7146101b9578063033857701461022b578063081812fc146102a6578063095ea7b3146103215780630b16804e1461037c575b600080fd5b6101b76004803603604081101561018157600080fd5b81019080803573ffffffffffffffffffffffffffffffffffffffff16906020019092919080359060200190929190505050610d14565b005b3480156101c557600080fd5b50610211600480360360208110156101dc57600080fd5b8101908080357bffffffffffffffffffffffffffffffffffffffffffffffffffffffff19169060200190929190505050610ff8565b604051808215151515815260200191505060405180910390f35b34801561023757600080fd5b506102646004803603602081101561024e57600080fd5b810190808035906020019092919050505061105f565b604051808273ffffffffffffffffffffffffffffffffffffffff1673ffffffffffffffffffffffffffffffffffffffff16815260200191505060405180910390f35b3480156102b257600080fd5b506102df600480360360208110156102c957600080fd5b8101908080359060200190929190505050611092565b604051808273ffffffffffffffffffffffffffffffffffffffff1673ffffffffffffffffffffffffffffffffffffffff16815260200191505060405180910390f35b34801561032d57600080fd5b5061037a6004803603604081101561034457600080fd5b81019080803573ffffffffffffffffffffffffffffffffffffffff1690602001909291908035906020019092919050505061112d565b005b34801561038857600080fd5b506103b56004803603602081101561039f57600080fd5b81019080803590602001909291905050506113ee565b604051808273ffffffffffffffffffffffffffffffffffffffff1673ffffffffffffffffffffffffffffffffffffffff16815260200191505060405180910390f35b34801561040357600080fd5b506104306004803603602081101561041a57600080fd5b8101908080359060200190929190505050611421565b6040518085815260200184815260200183815260200182815260200194505050505060405180910390f35b34801561046757600080fd5b506104d46004803603606081101561047e57600080fd5b81019080803573ffffffffffffffffffffffffffffffffffffffff169060200190929190803573ffffffffffffffffffffffffffffffffffffffff16906020019092919080359060200190929190505050611451565b005b3480156104e257600080fd5b5061050f600480360360208110156104f957600080fd5b81019080803590602001909291905050506114c0565b604051808273ffffffffffffffffffffffffffffffffffffffff1673ffffffffffffffffffffffffffffffffffffffff16815260200191505060405180910390f35b34801561055d57600080fd5b5061058a6004803603602081101561057457600080fd5b81019080803590602001909291905050506114f3565b604051808273ffffffffffffffffffffffffffffffffffffffff1673ffffffffffffffffffffffffffffffffffffffff16815260200191505060405180910390f35b3480156105d857600080fd5b50610645600480360360608110156105ef57600080fd5b81019080803573ffffffffffffffffffffffffffffffffffffffff169060200190929190803573ffffffffffffffffffffffffffffffffffffffff16906020019092919080359060200190929190505050611605565b005b34801561065357600080fd5b506106a06004803603604081101561066a57600080fd5b8101908080359060200190929190803573ffffffffffffffffffffffffffffffffffffffff169060200190929190505050611625565b005b3480156106ae57600080fd5b506106fb600480360360408110156106c557600080fd5b8101908080359060200190929190803573ffffffffffffffffffffffffffffffffffffffff1690602001909291905050506117fd565b005b34801561070957600080fd5b506107366004803603602081101561072057600080fd5b8101908080359060200190929190505050611a4e565b604051808273ffffffffffffffffffffffffffffffffffffffff1673ffffffffffffffffffffffffffffffffffffffff16815260200191505060405180910390f35b34801561078457600080fd5b506107c76004803603602081101561079b57600080fd5b81019080803573ffffffffffffffffffffffffffffffffffffffff169060200190929190505050611b33565b6040518082815260200191505060405180910390f35b3480156107e957600080fd5b5061082c6004803603602081101561080057600080fd5b81019080803573ffffffffffffffffffffffffffffffffffffffff169060200190929190505050611c08565b005b34801561083a57600080fd5b506108896004803603604081101561085157600080fd5b81019080803573ffffffffffffffffffffffffffffffffffffffff169060200190929190803515159060200190929190505050611d69565b005b34801561089757600080fd5b506108a0611f0c565b604051808273ffffffffffffffffffffffffffffffffffffffff1673ffffffffffffffffffffffffffffffffffffffff16815260200191505060405180910390f35b3480156108ee57600080fd5b506109256004803603604081101561090557600080fd5b810190808035906020019092919080359060200190929190505050611f32565b005b34801561093357600080fd5b50610a376004803603608081101561094a57600080fd5b81019080803573ffffffffffffffffffffffffffffffffffffffff169060200190929190803573ffffffffffffffffffffffffffffffffffffffff16906020019092919080359060200190929190803590602001906401000000008111156109b157600080fd5b8201836020820111156109c357600080fd5b803590602001918460018302840111640100000000831117156109e557600080fd5b91908080601f016020809104026020016040519081016040528093929190818152602001838380828437600081840152601f19601f820116905080830192505050505050509192919290505050612008565b005b348015610a4557600080fd5b50610a8860048036036020811015610a5c57600080fd5b81019080803573ffffffffffffffffffffffffffffffffffffffff16906020019092919050505061207a565b005b348015610a9657600080fd5b50610bf560048036036080811015610aad57600080fd5b81019080803590602001909291908035906020019092919080359060200190640100000000811115610ade57600080fd5b820183602082011115610af057600080fd5b80359060200191846020830284011164010000000083111715610b1257600080fd5b919080806020026020016040519081016040528093929190818152602001838360200280828437600081840152601f19601f82011690508083019250505050505050919291929080359060200190640100000000811115610b7257600080fd5b820183602082011115610b8457600080fd5b80359060200191846020830284011164010000000083111715610ba657600080fd5b919080806020026020016040519081016040528093929190818152602001838360200280828437600081840152601f19601f8201169050808301925050505050505091929192905050506121db565b005b348015610c0357600080fd5b50610c6660048036036040811015610c1a57600080fd5b81019080803573ffffffffffffffffffffffffffffffffffffffff169060200190929190803573ffffffffffffffffffffffffffffffffffffffff1690602001909291905050506125e8565b604051808215151515815260200191505060405180910390f35b348015610c8c57600080fd5b50610c9561267c565b6040518082815260200191505060405180910390f35b348015610cb757600080fd5b50610cfa60048036036020811015610cce57600080fd5b81019080803573ffffffffffffffffffffffffffffffffffffffff169060200190929190505050612682565b604051808215151515815260200191505060405180910390f35b610d1e33826126a2565b610d90576040517f08c379a00000000000000000000000000000000000000000000000000000000081526004018080602001828103825260158152602001807f4e6f7420416e20417070726f766564204f776e6572000000000000000000000081525060200191505060405180910390fd5b8173ffffffffffffffffffffffffffffffffffffffff16610db082611a4e565b73ffffffffffffffffffffffffffffffffffffffff1614610e39576040517f08c379a00000000000000000000000000000000000000000000000000000000081526004018080602001828103825260138152602001807f4e6f7420546865204173736574204f776e65720000000000000000000000000081525060200191505060405180910390fd5b670de0b6b3a76400006007600083815260200190815260200160002060010154023414610ece576040517f08c379a00000000000000000000000000000000000000000000000000000000081526004018080602001828103825260108152602001807f4e6f7420656e6f7567682056616c75650000000000000000000000000000000081525060200191505060405180910390fd5b610ee081610edb83611092565b612785565b336009600083815260200190815260200160002060006101000a81548173ffffffffffffffffffffffffffffffffffffffff021916908373ffffffffffffffffffffffffffffffffffffffff1602179055508173ffffffffffffffffffffffffffffffffffffffff166108fc670de0b6b3a76400006007600085815260200190815260200160002060010154029081150290604051600060405180830381858888f19350505050158015610f98573d6000803e3d6000fd5b50803373ffffffffffffffffffffffffffffffffffffffff168373ffffffffffffffffffffffffffffffffffffffff167fddf252ad1be2c89b69c2b068fc378daa952ba7f163c4a11628f55a4df523b3ef60405160405180910390a45050565b6000806000837bffffffffffffffffffffffffffffffffffffffffffffffffffffffff19167bffffffffffffffffffffffffffffffffffffffffffffffffffffffff1916815260200190815260200160002060009054906101000a900460ff169050919050565b60086020528060005260406000206000915054906101000a900473ffffffffffffffffffffffffffffffffffffffff1681565b600061109d82612844565b6110f2576040517f08c379a000000000000000000000000000000000000000000000000000000000815260040180806020018281038252602c8152602001806133e4602c913960400191505060405180910390fd5b6008600083815260200190815260200160002060009054906101000a900473ffffffffffffffffffffffffffffffffffffffff169050919050565b600061113882611a4e565b90508073ffffffffffffffffffffffffffffffffffffffff168373ffffffffffffffffffffffffffffffffffffffff1614156111dc576040517f08c379a00000000000000000000000000000000000000000000000000000000081526004018080602001828103825260168152602001807f43757272656e74204f776e657220417070726f76616c0000000000000000000081525060200191505060405180910390fd5b8073ffffffffffffffffffffffffffffffffffffffff163373ffffffffffffffffffffffffffffffffffffffff161461127d576040517f08c379a00000000000000000000000000000000000000000000000000000000081526004018080602001828103825260138152602001807f4e6f7420546865204173736574204f776e65720000000000000000000000000081525060200191505060405180910390fd5b600b60008473ffffffffffffffffffffffffffffffffffffffff1673ffffffffffffffffffffffffffffffffffffffff16815260200190815260200160002060009054906101000a900460ff1661133c576040517f08c379a000000000000000000000000000000000000000000000000000000000815260040180806020018281038252601e8152602001807f204f776e65722061646472657373206973206e6f7420656c696769626c65000081525060200191505060405180910390fd5b826008600084815260200190815260200160002060006101000a81548173ffffffffffffffffffffffffffffffffffffffff021916908373ffffffffffffffffffffffffffffffffffffffff160217905550818373ffffffffffffffffffffffffffffffffffffffff168273ffffffffffffffffffffffffffffffffffffffff167f8c5be1e5ebec7d5bd14f71427d1e84f3dd0314c0f7b2291e5b200ac8c7c3b92560405160405180910390a4505050565b600a6020528060005260406000206000915054906101000a900473ffffffffffffffffffffffffffffffffffffffff1681565b60076020528060005260406000206000915090508060000154908060010154908060020154908060030154905084565b61145b33826128b0565b6114b0576040517f08c379a00000000000000000000000000000000000000000000000000000000081526004018080602001828103825260318152602001806134396031913960400191505060405180910390fd5b6114bb8383836129a4565b505050565b60096020528060005260406000206000915054906101000a900473ffffffffffffffffffffffffffffffffffffffff1681565b60008073ffffffffffffffffffffffffffffffffffffffff16600a600084815260200190815260200160002060009054906101000a900473ffffffffffffffffffffffffffffffffffffffff1673ffffffffffffffffffffffffffffffffffffffff1614156115ca576040517f08c379a000000000000000000000000000000000000000000000000000000000815260040180806020018281038252600f8152602001807f4e6f20417373657420457869737473000000000000000000000000000000000081525060200191505060405180910390fd5b600a600083815260200190815260200160002060009054906101000a900473ffffffffffffffffffffffffffffffffffffffff169050919050565b61162083838360405180602001604052806000815250612008565b505050565b3373ffffffffffffffffffffffffffffffffffffffff16600660009054906101000a900473ffffffffffffffffffffffffffffffffffffffff1673ffffffffffffffffffffffffffffffffffffffff16146116e8576040517f08c379a000000000000000000000000000000000000000000000000000000000815260040180806020018281038252601d8152602001807f6f6e6c79206f7261636c652063616e206368616e67652072656e74657200000081525060200191505060405180910390fd5b600b60008273ffffffffffffffffffffffffffffffffffffffff1673ffffffffffffffffffffffffffffffffffffffff16815260200190815260200160002060009054906101000a900460ff166117a7576040517f08c379a000000000000000000000000000000000000000000000000000000000815260040180806020018281038252601e8152602001807f204f776e65722061646472657373206973206e6f7420656c696769626c65000081525060200191505060405180910390fd5b80600a600084815260200190815260200160002060006101000a81548173ffffffffffffffffffffffffffffffffffffffff021916908373ffffffffffffffffffffffffffffffffffffffff1602179055505050565b600660009054906101000a900473ffffffffffffffffffffffffffffffffffffffff1673ffffffffffffffffffffffffffffffffffffffff163373ffffffffffffffffffffffffffffffffffffffff16146118a3576040517f08c379a000000000000000000000000000000000000000000000000000000000815260040180806020018281038252602b8152602001806133b9602b913960400191505060405180910390fd5b600b60008273ffffffffffffffffffffffffffffffffffffffff1673ffffffffffffffffffffffffffffffffffffffff16815260200190815260200160002060009054906101000a900460ff16611962576040517f08c379a000000000000000000000000000000000000000000000000000000000815260040180806020018281038252601e8152602001807f204f776e65722061646472657373206973206e6f7420656c696769626c65000081525060200191505060405180910390fd5b60405180608001604052806005548152602001838152602001600081526020016064815250600760006005548152602001908152602001600020600082015181600001556020820151816001015560408201518160020155606082015181600301559050506040518060800160405280600554815260200183815260200160008152602001606481525060076000600554815260200190815260200160002060008201518160000155602082015181600101556040820151816002015560608201518160030155905050611a3881600554612bff565b6005600081548092919060010191905055505050565b6000806009600084815260200190815260200160002060009054906101000a900473ffffffffffffffffffffffffffffffffffffffff169050600073ffffffffffffffffffffffffffffffffffffffff168173ffffffffffffffffffffffffffffffffffffffff161415611b2a576040517f08c379a000000000000000000000000000000000000000000000000000000000815260040180806020018281038252600f8152602001807f4e6f20417373657420457869737473000000000000000000000000000000000081525060200191505060405180910390fd5b80915050919050565b60008073ffffffffffffffffffffffffffffffffffffffff168273ffffffffffffffffffffffffffffffffffffffff161415611bba576040517f08c379a000000000000000000000000000000000000000000000000000000000815260040180806020018281038252602a81526020018061338f602a913960400191505060405180910390fd5b611c01600360008473ffffffffffffffffffffffffffffffffffffffff1673ffffffffffffffffffffffffffffffffffffffff168152602001908152602001600020612da8565b9050919050565b600660009054906101000a900473ffffffffffffffffffffffffffffffffffffffff1673ffffffffffffffffffffffffffffffffffffffff163373ffffffffffffffffffffffffffffffffffffffff1614611ccb576040517f08c379a000000000000000000000000000000000000000000000000000000000815260040180806020018281038252601c8152602001807f4f6e6c79206f7261636c652063616e2061646420656c696769626c650000000081525060200191505060405180910390fd5b6001600b60008373ffffffffffffffffffffffffffffffffffffffff1673ffffffffffffffffffffffffffffffffffffffff16815260200190815260200160002060006101000a81548160ff0219169083151502179055508073ffffffffffffffffffffffffffffffffffffffff167f8a3be376fdc726be3f3cee8e59ba5698a268a9b59f69cdabcf06d2ec2c90658f60405160405180910390a250565b3373ffffffffffffffffffffffffffffffffffffffff168273ffffffffffffffffffffffffffffffffffffffff161415611e0b576040517f08c379a00000000000000000000000000000000000000000000000000000000081526004018080602001828103825260198152602001807f4552433732313a20617070726f766520746f2063616c6c65720000000000000081525060200191505060405180910390fd5b80600c60003373ffffffffffffffffffffffffffffffffffffffff1673ffffffffffffffffffffffffffffffffffffffff16815260200190815260200160002060008473ffffffffffffffffffffffffffffffffffffffff1673ffffffffffffffffffffffffffffffffffffffff16815260200190815260200160002060006101000a81548160ff0219169083151502179055508173ffffffffffffffffffffffffffffffffffffffff163373ffffffffffffffffffffffffffffffffffffffff167f17307eab39ab6107e8899845ad3d59bd9653f200f220920489ca2b5937696c3183604051808215151515815260200191505060405180910390a35050565b600660009054906101000a900473ffffffffffffffffffffffffffffffffffffffff1681565b6009600083815260200190815260200160002060009054906101000a900473ffffffffffffffffffffffffffffffffffffffff1673ffffffffffffffffffffffffffffffffffffffff163373ffffffffffffffffffffffffffffffffffffffff1614611fe9576040517f08c379a000000000000000000000000000000000000000000000000000000000815260040180806020018281038252602a815260200180613339602a913960400191505060405180910390fd5b8060076000848152602001908152602001600020600101819055505050565b612013848484611451565b61201f84848484612db6565b612074576040517f08c379a00000000000000000000000000000000000000000000000000000000081526004018080602001828103825260328152602001806132c16032913960400191505060405180910390fd5b50505050565b600660009054906101000a900473ffffffffffffffffffffffffffffffffffffffff1673ffffffffffffffffffffffffffffffffffffffff163373ffffffffffffffffffffffffffffffffffffffff161461213d576040517f08c379a000000000000000000000000000000000000000000000000000000000815260040180806020018281038252601f8152602001807f4f6e6c79206f7261636c652063616e2072656d6f766520656c696769626c650081525060200191505060405180910390fd5b6000600b60008373ffffffffffffffffffffffffffffffffffffffff1673ffffffffffffffffffffffffffffffffffffffff16815260200190815260200160002060006101000a81548160ff0219169083151502179055508073ffffffffffffffffffffffffffffffffffffffff167f80f4d7be9d601c8487132194fd218772956b9b20b704060810edd362c193220c60405160405180910390a250565b6121fc83836007600088815260200190815260200160002060030154612f9f565b612251576040517f08c379a00000000000000000000000000000000000000000000000000000000081526004018080602001828103825260228152602001806133176022913960400191505060405180910390fd5b61225b838261301c565b6122cd576040517f08c379a000000000000000000000000000000000000000000000000000000000815260040180806020018281038252601c8152602001807f416c6c2061646472657373206d75737420626520656c696769626c650000000081525060200191505060405180910390fd5b600073ffffffffffffffffffffffffffffffffffffffff166009600086815260200190815260200160002060009054906101000a900473ffffffffffffffffffffffffffffffffffffffff1673ffffffffffffffffffffffffffffffffffffffff1614158061233d575060008410155b6123af576040517f08c379a000000000000000000000000000000000000000000000000000000000815260040180806020018281038252600f8152602001807f4173736574206e6f74206578697374000000000000000000000000000000000081525060200191505060405180910390fd5b3373ffffffffffffffffffffffffffffffffffffffff166009600086815260200190815260200160002060009054906101000a900473ffffffffffffffffffffffffffffffffffffffff1673ffffffffffffffffffffffffffffffffffffffff1614612483576040517f08c379a00000000000000000000000000000000000000000000000000000000081526004018080602001828103825260158152602001807f4f6e6c79206f776e65722063616e2073706c697420000000000000000000000081525060200191505060405180910390fd5b60006009600086815260200190815260200160002060006101000a81548173ffffffffffffffffffffffffffffffffffffffff021916908373ffffffffffffffffffffffffffffffffffffffff16021790555060008090505b838110156125e157600560008154809291906001019190505550604051806080016040528060055481526020016000815260200186815260200184838151811061252257fe5b60200260200101518152506007600060055481526020019081526020016000206000820151816000015560208201518160010155604082015181600201556060820151816003015590505081818151811061257957fe5b602002602001015160096000600554815260200190815260200160002060006101000a81548173ffffffffffffffffffffffffffffffffffffffff021916908373ffffffffffffffffffffffffffffffffffffffff16021790555080806001019150506124dc565b5050505050565b6000600c60008473ffffffffffffffffffffffffffffffffffffffff1673ffffffffffffffffffffffffffffffffffffffff16815260200190815260200160002060008373ffffffffffffffffffffffffffffffffffffffff1673ffffffffffffffffffffffffffffffffffffffff16815260200190815260200160002060009054906101000a900460ff16905092915050565b60055481565b600b6020528060005260406000206000915054906101000a900460ff1681565b60006126ad82612844565b612702576040517f08c379a000000000000000000000000000000000000000000000000000000000815260040180806020018281038252602c815260200180613363602c913960400191505060405180910390fd5b600061270d83611a4e565b90508073ffffffffffffffffffffffffffffffffffffffff168473ffffffffffffffffffffffffffffffffffffffff16148061277c575061274d83611092565b73ffffffffffffffffffffffffffffffffffffffff168473ffffffffffffffffffffffffffffffffffffffff16145b91505092915050565b6008600083815260200190815260200160002060009054906101000a900473ffffffffffffffffffffffffffffffffffffffff1673ffffffffffffffffffffffffffffffffffffffff168173ffffffffffffffffffffffffffffffffffffffff1614156128405760006008600084815260200190815260200160002060006101000a81548173ffffffffffffffffffffffffffffffffffffffff021916908373ffffffffffffffffffffffffffffffffffffffff1602179055505b5050565b60008073ffffffffffffffffffffffffffffffffffffffff166009600084815260200190815260200160002060009054906101000a900473ffffffffffffffffffffffffffffffffffffffff1673ffffffffffffffffffffffffffffffffffffffff1614159050919050565b60006128bb826130bb565b612910576040517f08c379a000000000000000000000000000000000000000000000000000000000815260040180806020018281038252602c815260200180613363602c913960400191505060405180910390fd5b600061291b83611a4e565b90508073ffffffffffffffffffffffffffffffffffffffff168473ffffffffffffffffffffffffffffffffffffffff16148061298a57508373ffffffffffffffffffffffffffffffffffffffff1661297284611092565b73ffffffffffffffffffffffffffffffffffffffff16145b8061299b575061299a81856125e8565b5b91505092915050565b8273ffffffffffffffffffffffffffffffffffffffff166129c482611a4e565b73ffffffffffffffffffffffffffffffffffffffff1614612a30576040517f08c379a00000000000000000000000000000000000000000000000000000000081526004018080602001828103825260298152602001806134106029913960400191505060405180910390fd5b600073ffffffffffffffffffffffffffffffffffffffff168273ffffffffffffffffffffffffffffffffffffffff161415612ab6576040517f08c379a00000000000000000000000000000000000000000000000000000000081526004018080602001828103825260248152602001806132f36024913960400191505060405180910390fd5b612abf8161312d565b612b06600360008573ffffffffffffffffffffffffffffffffffffffff1673ffffffffffffffffffffffffffffffffffffffff1681526020019081526020016000206131eb565b612b4d600360008473ffffffffffffffffffffffffffffffffffffffff1673ffffffffffffffffffffffffffffffffffffffff16815260200190815260200160002061320e565b816001600083815260200190815260200160002060006101000a81548173ffffffffffffffffffffffffffffffffffffffff021916908373ffffffffffffffffffffffffffffffffffffffff160217905550808273ffffffffffffffffffffffffffffffffffffffff168473ffffffffffffffffffffffffffffffffffffffff167fddf252ad1be2c89b69c2b068fc378daa952ba7f163c4a11628f55a4df523b3ef60405160405180910390a4505050565b600073ffffffffffffffffffffffffffffffffffffffff168273ffffffffffffffffffffffffffffffffffffffff161415612ca2576040517f08c379a00000000000000000000000000000000000000000000000000000000081526004018080602001828103825260148152602001807f5a65726f2041646472657373204d696e74696e6700000000000000000000000081525060200191505060405180910390fd5b816009600083815260200190815260200160002060006101000a81548173ffffffffffffffffffffffffffffffffffffffff021916908373ffffffffffffffffffffffffffffffffffffffff16021790555081600a6000600554815260200190815260200160002060006101000a81548173ffffffffffffffffffffffffffffffffffffffff021916908373ffffffffffffffffffffffffffffffffffffffff160217905550808273ffffffffffffffffffffffffffffffffffffffff16600073ffffffffffffffffffffffffffffffffffffffff167fddf252ad1be2c89b69c2b068fc378daa952ba7f163c4a11628f55a4df523b3ef60405160405180910390a45050565b600081600001549050919050565b6000612dd78473ffffffffffffffffffffffffffffffffffffffff16613224565b612de45760019050612f97565b60008473ffffffffffffffffffffffffffffffffffffffff1663150b7a02338887876040518563ffffffff1660e01b8152600401808573ffffffffffffffffffffffffffffffffffffffff1673ffffffffffffffffffffffffffffffffffffffff1681526020018473ffffffffffffffffffffffffffffffffffffffff1673ffffffffffffffffffffffffffffffffffffffff16815260200183815260200180602001828103825283818151815260200191508051906020019080838360005b83811015612ebf578082015181840152602081019050612ea4565b50505050905090810190601f168015612eec5780820380516001836020036101000a031916815260200191505b5095505050505050602060405180830381600087803b158015612f0e57600080fd5b505af1158015612f22573d6000803e3d6000fd5b505050506040513d6020811015612f3857600080fd5b8101908080519060200190929190505050905063150b7a0260e01b7bffffffffffffffffffffffffffffffffffffffffffffffffffffffff1916817bffffffffffffffffffffffffffffffffffffffffffffffffffffffff1916149150505b949350505050565b60008060008090505b85811015612ffc576001858281518110612fbe57fe5b60200260200101511015612fd757600092505050613015565b848181518110612fe357fe5b6020026020010151820191508080600101915050612fa8565b508281141561300f576001915050613015565b60009150505b9392505050565b600080600090505b838110156130af5760001515600b600085848151811061304057fe5b602002602001015173ffffffffffffffffffffffffffffffffffffffff1673ffffffffffffffffffffffffffffffffffffffff16815260200190815260200160002060009054906101000a900460ff16151514156130a25760009150506130b5565b8080600101915050613024565b50600190505b92915050565b6000806001600084815260200190815260200160002060009054906101000a900473ffffffffffffffffffffffffffffffffffffffff169050600073ffffffffffffffffffffffffffffffffffffffff168173ffffffffffffffffffffffffffffffffffffffff161415915050919050565b600073ffffffffffffffffffffffffffffffffffffffff166002600083815260200190815260200160002060009054906101000a900473ffffffffffffffffffffffffffffffffffffffff1673ffffffffffffffffffffffffffffffffffffffff16146131e85760006002600083815260200190815260200160002060006101000a81548173ffffffffffffffffffffffffffffffffffffffff021916908373ffffffffffffffffffffffffffffffffffffffff1602179055505b50565b6132036001826000015461323790919063ffffffff16565b816000018190555050565b6001816000016000828254019250508190555050565b600080823b905060008111915050919050565b6000828211156132af576040517f08c379a000000000000000000000000000000000000000000000000000000000815260040180806020018281038252601e8152602001807f536166654d6174683a207375627472616374696f6e206f766572666c6f77000081525060200191505060405180910390fd5b60008284039050809150509291505056fe4552433732313a207472616e7366657220746f206e6f6e20455243373231526563656976657220696d706c656d656e7465724552433732313a207472616e7366657220746f20746865207a65726f2061646472657373536f6d65207468696e672069732077726f6e6720776974682070657263656e7465734f6e6c79206f776e657220616464726573732043616e2063616c6c20746869732046756e6374696f6e214552433732313a206f70657261746f7220717565727920666f72206e6f6e6578697374656e7420746f6b656e4552433732313a2062616c616e636520717565727920666f7220746865207a65726f20616464726573736f6e6c79206f7261636c6520616464726573732063616e2063616c6c20746869732066756e6374696f6e214552433732313a20617070726f76656420717565727920666f72206e6f6e6578697374656e7420746f6b656e4552433732313a207472616e73666572206f6620746f6b656e2074686174206973206e6f74206f776e4552433732313a207472616e736665722063616c6c6572206973206e6f74206f776e6572206e6f7220617070726f766564a165627a7a723058204e6b88689a5a4cbed233b192b2ce2442f0711ad5409601ec49a3b7dd0ecb35590029",
  "source": "// SPDX-License-Identifier: GPL-3.0\r\n\r\npragma solidity >=0.4.22 <=0.6.0;\r\n\r\nimport \"./helper_contracts/ERC721.sol\";\r\n\r\ncontract RESNFT is ERC721 {\r\n\r\n    uint256 public assetCount;\r\n    address public oracleAddress;\r\n\r\n    struct Asset {\r\n        uint256 assetId;\r\n        uint256 price;\r\n        uint256 parent;\r\n        uint256 percent;\r\n    }\r\n\r\n    mapping(uint256=>Asset)   public assetMap;\r\n    mapping(uint256=>address) public assetApprovals;\r\n    mapping(uint256=>address) public assetOwner;\r\n    mapping(uint256=>address) public assetRenter;\r\n    mapping(address=>bool)    public eligibleList;\r\n\r\n    constructor() public{\r\n        oracleAddress = msg.sender;\r\n    }\r\n    \r\n\r\n    // Event\r\n    event Transfer(address indexed from, address indexed to, uint256 indexed tokenId);\r\n    event Approval(address indexed owner, address indexed approved, uint256 indexed tokenId);\r\n    event AddedToWhiteList(address indexed);\r\n    event RemoveFromWhiteList(address indexed);\r\n\r\n    function addToEligibleList(address eligible) public {\r\n        require( msg.sender == oracleAddress,\"Only oracle can add eligible\" );\r\n        eligibleList[eligible] = true;\r\n         emit AddedToWhiteList(eligible);\r\n    }\r\n\r\n    function removeFromEligibleList(address deligible) public {\r\n        require( msg.sender == oracleAddress,\"Only oracle can remove eligible\" );\r\n        eligibleList[deligible] = false;\r\n        emit RemoveFromWhiteList(deligible);\r\n    }\r\n\r\n    function ownerOf(uint256 tokenId) public view returns(address) {\r\n        address owner = assetOwner[tokenId];\r\n        require(owner != address(0), \"No Asset Exists\");\r\n        return owner;\r\n    } \r\n\r\n    function getRenter(uint256 tokenId) public view returns(address) {\r\n        require(assetRenter[tokenId] != address(0), \"No Asset Exists\");\r\n        return assetRenter[tokenId];\r\n    } \r\n\r\n    function transferFrom(address payable from, uint256 assetId) public payable {\r\n        //require( eligibleList[msg.sender] == true ,\"Only the oreligibles can transfer\" );\r\n        //                     \r\n        require(isApprovedOrOwner(msg.sender, assetId), \"Not An Approved Owner\");\r\n\r\n        //         \r\n        require(ownerOf(assetId) == from, \"Not The Asset Owner\");\r\n\r\n        //                  \r\n        require(msg.value == assetMap[assetId].price * 10**18, \"Not enough Value\");\r\n\r\n        clearApproval(assetId, getApproved(assetId));\r\n\r\n\r\n        //        \r\n        assetOwner[assetId] = msg.sender;\r\n\r\n        //               \r\n        from.transfer(assetMap[assetId].price * 10**18);\r\n\r\n        emit Transfer(from, msg.sender, assetId);\r\n    }\r\n\r\n    function changeRenter(uint assetId, address newRenter) public{ \r\n\r\n        //         \r\n        require( oracleAddress == msg.sender, \"only oracle can change renter\");\r\n\r\n        require( eligibleList[newRenter],\" Owner address is not eligible\" );\r\n\r\n        assetRenter[assetId] = newRenter;\r\n\r\n    }\r\n\r\n    function split(uint id, uint count, uint[] memory percents, address[] memory addresses) public {\r\n        require(checkPercentes(count, percents, assetMap[id].percent), \"Some thing is wrong with percentes\");\r\n        require(checkAddressesEligibleity(count, addresses), \"All address must be eligible\");\r\n        require(assetOwner[id] != address(0) || id >= 0, \"Asset not exist\");\r\n        require(assetOwner[id] == msg.sender, \"Only owner can split \");\r\n        assetOwner[id] = address(0);\r\n        //clearApproval(id, getApproved(id));\r\n        for(uint i = 0; i < count; i++) {\r\n            assetCount++;\r\n            assetMap[assetCount] = Asset(assetCount, 0, id, percents[i]);\r\n            assetOwner[assetCount] = addresses[i];\r\n        }\r\n    }\r\n\r\n    function approve(address to, uint256 assetId) public {\r\n        //require( eligibleList[to] == true ,\"Only can approve to oreligibles\" );\r\n        address owner = ownerOf(assetId);\r\n\r\n         require(to != owner, \"Current Owner Approval\");\r\n\r\n        //            \r\n        require(msg.sender == owner, \"Not The Asset Owner\");\r\n        \r\n        require( eligibleList[to],\" Owner address is not eligible\" );\r\n        assetApprovals[assetId] = to;\r\n\r\n        emit Approval(owner, to, assetId);\r\n    }\r\n    \r\n    function getApproved(uint256 assetId) public view returns(address) {\r\n        require(exists(assetId), \"ERC721: approved query for nonexistent token\");\r\n        return assetApprovals[assetId];\r\n    }\r\n\r\n\r\n    ////////////////////////////////////////////////////////////////////////////////\r\n    //             Functions used internally by another functions                 //\r\n    ////////////////////////////////////////////////////////////////////////////////\r\n    function mint(address to, uint256 assetId) internal {\r\n\r\n        require(to != address(0), \"Zero Address Minting\");\r\n\r\n        assetOwner[assetId] = to;\r\n        assetRenter[assetCount] = to;\r\n        \r\n        emit Transfer(address(0), to, assetId);\r\n    }\r\n\r\n    function exists(uint256 assetId) internal view returns(bool) {\r\n        return assetOwner[assetId] != address(0);\r\n    }\r\n\r\n    function isApprovedOrOwner(address spender, uint assetId) internal view returns(bool) {\r\n        require(exists(assetId), \"ERC721: operator query for nonexistent token\");\r\n\r\n        address owner = ownerOf(assetId);\r\n\r\n        return (spender == owner || spender == getApproved(assetId) ); // \r\n    }\r\n\r\n\r\n    ////////////////////////////////////////////////////////////////////////////////\r\n    //                     Unused ERC721 functions                                //\r\n    ////////////////////////////////////////////////////////////////////////////////\r\n\r\n    bytes4 private constant _ERC721_RECEIVED = 0x150b7a02;\r\n\r\n    mapping (address => mapping (address => bool)) private _operatorApprovals;\r\n\r\n    event ApprovalForAll(address indexed owner, address indexed operator, bool approved);\r\n\r\n    function setApprovalForAll(address to, bool approved) public {\r\n        require(to != msg.sender, \"ERC721: approve to caller\");\r\n        _operatorApprovals[msg.sender][to] = approved;\r\n        emit ApprovalForAll(msg.sender, to, approved);\r\n    }\r\n\r\n    function isApprovedForAll(address owner, address operator) public view returns (bool) {\r\n        return _operatorApprovals[owner][operator];\r\n    }\r\n\r\n    function safeTransferFrom(address from, address to, uint256 tokenId, bytes memory _data) public {\r\n        transferFrom(from, to, tokenId);\r\n        require(_checkOnERC721Received(from, to, tokenId, _data), \"ERC721: transfer to non ERC721Receiver implementer\");\r\n    }\r\n\r\n    function safeTransferFrom(address from, address to, uint256 tokenId) public {\r\n        safeTransferFrom(from, to, tokenId, \"\");\r\n    }\r\n\r\n    function _checkOnERC721Received(address from, address to, uint256 tokenId, bytes memory _data) internal returns (bool) {\r\n        if (!to.isContract()) {\r\n            return true;\r\n        }\r\n        bytes4 retval = IERC721Receiver(to).onERC721Received(msg.sender, from, tokenId, _data);\r\n        return (retval == _ERC721_RECEIVED);\r\n    }\r\n\r\n    ////////////////////////////////////////////////////////////////////////////////\r\n    //                 Additional functions added to the  token                   //\r\n    ////////////////////////////////////////////////////////////////////////////////\r\n\r\n    function addAsset(uint256 price, address to) public {\r\n        \r\n        //         \r\n        require(msg.sender == oracleAddress, \"only oracle address can call this function!\");\r\n\r\n        //require( eligibleList[to] == true ,\"Assets can only add to eligibles \" );\r\n\r\n        require( eligibleList[to],\" Owner address is not eligible\" );\r\n        assetMap[assetCount] = Asset(assetCount, price, 0, 100);\r\n        \r\n        //  \r\n        assetMap[assetCount] = Asset(assetCount, price,0,100);       // price : Eth   ,  assetCount ~ assetId\r\n\r\n        //    \r\n        mint(to, assetCount);\r\n\r\n        assetCount++;\r\n    }\r\n    \r\n    \r\n\r\n    function clearApproval(uint256 assetId, address approved) internal {\r\n        if(approved == assetApprovals[assetId]) {\r\n            assetApprovals[assetId] = address(0);\r\n        } \r\n    }\r\n    \r\n\r\n    //   \r\n    function changePrice(uint256 assetId, uint256 value) public {\r\n        //         \r\n        require(msg.sender == assetOwner[assetId] , \"Only owner address Can call this Function!\");\r\n        assetMap[assetId].price = value;   // value , price : Eth\r\n    }\r\n\r\n    function checkPercentes(uint count, uint[] memory percents, uint parentPercent) pure private returns(bool) {\r\n        uint _percent;\r\n        for(uint i = 0; i < count; i++ ){\r\n            if(percents[i] < 1){\r\n                return false;\r\n            }\r\n            _percent = _percent + percents[i];\r\n        }\r\n        if(_percent == parentPercent){\r\n            return true;\r\n        }\r\n        return false;\r\n    } \r\n\r\n    function checkAddressesEligibleity(uint count, address[] memory addresses) view private returns(bool) {\r\n        for(uint i = 0; i < count; i++ ){\r\n            if(eligibleList[addresses[i]] == false){\r\n                return false;\r\n            }\r\n        }\r\n        return true;\r\n    } \r\n  \r\n}\r\n\r\n\r\n\r\n/* \r\n\r\n\r\n// SPDX-License-Identifier: GPL-3.0\r\n\r\npragma solidity ^0.8.5 ;\r\n\r\ncontract test {\r\n\r\n    uint256 public assetCount = 1 ;\r\n    \r\n    struct Asset {\r\n        uint256 assetId;\r\n        uint256 price;\r\n        uint256 parent;\r\n        uint256 percent;\r\n    }\r\n\r\n    mapping(uint256=>Asset)   public assetMap;\r\n    mapping(uint256=>address) public assetOwner;\r\n\r\n    function addAsset(uint _price) public {\r\n        assetMap[assetCount] = Asset(assetCount, _price, 0, 100);\r\n        assetOwner[assetCount] = msg.sender;\r\n        assetCount++;\r\n    }\r\n\r\n    function split(uint id, uint count, uint[] memory percents, address[] memory addresses) public {\r\n        require(checkPercentes(count, percents, assetMap[id].percent), \"Some thing is wrong with percentes\");\r\n        assetOwner[id] = address(0);\r\n        for(uint i = 0; i < count; i++) {\r\n            assetMap[assetCount] = Asset(assetCount, 0, id, percents[i]);\r\n            assetOwner[assetCount] = addresses[i];\r\n            assetCount++;\r\n        }\r\n    }\r\n\r\n    function getAsset(uint id) view public returns( Asset memory ) {\r\n        require(assetOwner[id] != address(0) || id > 0, \"Asset not exist\");\r\n        return assetMap[id] ;\r\n    }\r\n\r\n    function checkPercentes(uint count, uint[] memory percents, uint parentPercent) pure private returns(bool) {\r\n        uint _percent;\r\n        for(uint i = 0; i < count; i++ ){\r\n            if(percents[i] < 1){\r\n                return false;\r\n            }\r\n            _percent = _percent + percents[i];\r\n        }\r\n        if(_percent == parentPercent){\r\n            return true;\r\n        }\r\n        return false;\r\n    } \r\n\r\n}\r\n//      [50,50]\r\n//      [\"0xAb8483F64d9C6d1EcF9b849Ae677dD3315835cb2\",\"0x4B20993Bc481177ec7E8f571ceCaE8A9e22C02db\"]\r\n\r\n\r\n*/",
  "sourcePath": "G:\\arshad\\paian name\\smart contract\\New folder\\first test\\res-contract\\contracts\\RESNFT.sol",
  "compiler": {
    "name": "solc",
    "version": "0.5.8+commit.23d335f2.Emscripten.clang"
  },
  "schemaVersion": "3.4.16",
  "updatedAt": "2023-10-10T13:02:14.402Z",
  "networkType": "ethereum",
  "devdoc": {
    "methods": {
      "balanceOf(address)": {
        "details": "Gets the balance of the specified address.",
        "params": {
          "owner": "address to query the balance of"
        },
        "return": "uint256 representing the amount owned by the passed address"
      },
      "supportsInterface(bytes4)": {
        "details": "See `IERC165.supportsInterface`.     * Time complexity O(1), guaranteed to always use less than 30 000 gas."
      },
      "transferFrom(address,address,uint256)": {
        "details": "Transfers the ownership of a given token ID to another address. Usage of this method is discouraged, use `safeTransferFrom` whenever possible. Requires the msg.sender to be the owner, approved, or operator.",
        "params": {
          "from": "current owner of the token",
          "to": "address to receive the ownership of the given token ID",
          "tokenId": "uint256 ID of the token to be transferred"
        }
      }
    }
  },
  "userdoc": {
    "methods": {
      "addAsset(uint256,address)": {
        "notice": "/////////////////////////////////////////////////////////////////////////////"
      }
    }
  }
}